{
  "_format": "hh-sol-artifact-1",
  "contractName": "ReputationRegistry",
  "sourceName": "contracts/ReputationRegistry.sol",
  "abi": [
    {
      "inputs": [
        {
          "internalType": "address",
          "name": "_intgToken",
          "type": "address"
        },
        {
          "internalType": "address",
          "name": "_admin",
          "type": "address"
        }
      ],
      "stateMutability": "nonpayable",
      "type": "constructor"
    },
    {
      "inputs": [],
      "name": "AccessControlBadConfirmation",
      "type": "error"
    },
    {
      "inputs": [
        {
          "internalType": "address",
          "name": "account",
          "type": "address"
        },
        {
          "internalType": "bytes32",
          "name": "neededRole",
          "type": "bytes32"
        }
      ],
      "name": "AccessControlUnauthorizedAccount",
      "type": "error"
    },
    {
      "inputs": [],
      "name": "ReentrancyGuardReentrantCall",
      "type": "error"
    },
    {
      "anonymous": false,
      "inputs": [
        {
          "indexed": true,
          "internalType": "address",
          "name": "agent",
          "type": "address"
        },
        {
          "indexed": false,
          "internalType": "uint64",
          "name": "destinationChainSelector",
          "type": "uint64"
        },
        {
          "indexed": false,
          "internalType": "bytes32",
          "name": "messageId",
          "type": "bytes32"
        }
      ],
      "name": "AIBroadcastedCrossChain",
      "type": "event"
    },
    {
      "anonymous": false,
      "inputs": [
        {
          "indexed": true,
          "internalType": "address",
          "name": "agent",
          "type": "address"
        },
        {
          "indexed": false,
          "internalType": "uint256",
          "name": "oldScore",
          "type": "uint256"
        },
        {
          "indexed": false,
          "internalType": "uint256",
          "name": "newScore",
          "type": "uint256"
        }
      ],
      "name": "AISUpdated",
      "type": "event"
    },
    {
      "anonymous": false,
      "inputs": [
        {
          "indexed": true,
          "internalType": "bytes32",
          "name": "role",
          "type": "bytes32"
        },
        {
          "indexed": true,
          "internalType": "bytes32",
          "name": "previousAdminRole",
          "type": "bytes32"
        },
        {
          "indexed": true,
          "internalType": "bytes32",
          "name": "newAdminRole",
          "type": "bytes32"
        }
      ],
      "name": "RoleAdminChanged",
      "type": "event"
    },
    {
      "anonymous": false,
      "inputs": [
        {
          "indexed": true,
          "internalType": "bytes32",
          "name": "role",
          "type": "bytes32"
        },
        {
          "indexed": true,
          "internalType": "address",
          "name": "account",
          "type": "address"
        },
        {
          "indexed": true,
          "internalType": "address",
          "name": "sender",
          "type": "address"
        }
      ],
      "name": "RoleGranted",
      "type": "event"
    },
    {
      "anonymous": false,
      "inputs": [
        {
          "indexed": true,
          "internalType": "bytes32",
          "name": "role",
          "type": "bytes32"
        },
        {
          "indexed": true,
          "internalType": "address",
          "name": "account",
          "type": "address"
        },
        {
          "indexed": true,
          "internalType": "address",
          "name": "sender",
          "type": "address"
        }
      ],
      "name": "RoleRevoked",
      "type": "event"
    },
    {
      "anonymous": false,
      "inputs": [
        {
          "indexed": true,
          "internalType": "address",
          "name": "agent",
          "type": "address"
        },
        {
          "indexed": false,
          "internalType": "uint256",
          "name": "amount",
          "type": "uint256"
        }
      ],
      "name": "Staked",
      "type": "event"
    },
    {
      "anonymous": false,
      "inputs": [
        {
          "indexed": true,
          "internalType": "address",
          "name": "agent",
          "type": "address"
        },
        {
          "indexed": false,
          "internalType": "uint256",
          "name": "requestedTier",
          "type": "uint256"
        },
        {
          "indexed": false,
          "internalType": "uint256",
          "name": "amountPaid",
          "type": "uint256"
        }
      ],
      "name": "TierUpgradeRequested",
      "type": "event"
    },
    {
      "anonymous": false,
      "inputs": [
        {
          "indexed": true,
          "internalType": "address",
          "name": "agent",
          "type": "address"
        },
        {
          "indexed": false,
          "internalType": "uint256",
          "name": "amount",
          "type": "uint256"
        }
      ],
      "name": "Unstaked",
      "type": "event"
    },
    {
      "anonymous": false,
      "inputs": [
        {
          "indexed": true,
          "internalType": "address",
          "name": "validator",
          "type": "address"
        },
        {
          "indexed": true,
          "internalType": "address",
          "name": "agent",
          "type": "address"
        },
        {
          "indexed": true,
          "internalType": "bytes32",
          "name": "requestHash",
          "type": "bytes32"
        },
        {
          "indexed": false,
          "internalType": "string",
          "name": "requestUri",
          "type": "string"
        }
      ],
      "name": "ValidationRequested",
      "type": "event"
    },
    {
      "anonymous": false,
      "inputs": [
        {
          "indexed": true,
          "internalType": "bytes32",
          "name": "requestHash",
          "type": "bytes32"
        },
        {
          "indexed": false,
          "internalType": "uint8",
          "name": "status",
          "type": "uint8"
        },
        {
          "indexed": false,
          "internalType": "string",
          "name": "responseUri",
          "type": "string"
        }
      ],
      "name": "ValidationResponded",
      "type": "event"
    },
    {
      "anonymous": false,
      "inputs": [
        {
          "indexed": true,
          "internalType": "address",
          "name": "agent",
          "type": "address"
        },
        {
          "indexed": false,
          "internalType": "bool",
          "name": "isVerified",
          "type": "bool"
        },
        {
          "indexed": false,
          "internalType": "uint256",
          "name": "tier",
          "type": "uint256"
        }
      ],
      "name": "VerificationStatusChanged",
      "type": "event"
    },
    {
      "anonymous": false,
      "inputs": [
        {
          "indexed": true,
          "internalType": "address",
          "name": "agent",
          "type": "address"
        },
        {
          "indexed": true,
          "internalType": "bytes32",
          "name": "stateRoot",
          "type": "bytes32"
        }
      ],
      "name": "ZKProofVerified",
      "type": "event"
    },
    {
      "inputs": [],
      "name": "DEFAULT_ADMIN_ROLE",
      "outputs": [
        {
          "internalType": "bytes32",
          "name": "",
          "type": "bytes32"
        }
      ],
      "stateMutability": "view",
      "type": "function"
    },
    {
      "inputs": [],
      "name": "VALIDATOR_ROLE",
      "outputs": [
        {
          "internalType": "bytes32",
          "name": "",
          "type": "bytes32"
        }
      ],
      "stateMutability": "view",
      "type": "function"
    },
    {
      "inputs": [
        {
          "internalType": "address",
          "name": "",
          "type": "address"
        }
      ],
      "name": "agents",
      "outputs": [
        {
          "internalType": "uint256",
          "name": "ais",
          "type": "uint256"
        },
        {
          "internalType": "uint256",
          "name": "jobCount",
          "type": "uint256"
        },
        {
          "internalType": "uint256",
          "name": "totalStaked",
          "type": "uint256"
        },
        {
          "internalType": "uint256",
          "name": "lastUpdate",
          "type": "uint256"
        },
        {
          "internalType": "bool",
          "name": "isVerified",
          "type": "bool"
        },
        {
          "internalType": "uint256",
          "name": "verificationTier",
          "type": "uint256"
        }
      ],
      "stateMutability": "view",
      "type": "function"
    },
    {
      "inputs": [
        {
          "internalType": "address",
          "name": "_agent",
          "type": "address"
        },
        {
          "internalType": "uint64",
          "name": "_destinationChainSelector",
          "type": "uint64"
        },
        {
          "internalType": "address",
          "name": "_receiver",
          "type": "address"
        }
      ],
      "name": "broadcastAISToEthereumL1",
      "outputs": [
        {
          "internalType": "bytes32",
          "name": "messageId",
          "type": "bytes32"
        }
      ],
      "stateMutability": "nonpayable",
      "type": "function"
    },
    {
      "inputs": [],
      "name": "ccipRouter",
      "outputs": [
        {
          "internalType": "contract IRouterClient",
          "name": "",
          "type": "address"
        }
      ],
      "stateMutability": "view",
      "type": "function"
    },
    {
      "inputs": [
        {
          "internalType": "address",
          "name": "_agent",
          "type": "address"
        }
      ],
      "name": "getAgent",
      "outputs": [
        {
          "internalType": "uint256",
          "name": "score",
          "type": "uint256"
        },
        {
          "internalType": "uint256",
          "name": "staked",
          "type": "uint256"
        },
        {
          "internalType": "bool",
          "name": "verified",
          "type": "bool"
        },
        {
          "internalType": "uint256",
          "name": "tier",
          "type": "uint256"
        }
      ],
      "stateMutability": "view",
      "type": "function"
    },
    {
      "inputs": [
        {
          "internalType": "bytes32",
          "name": "role",
          "type": "bytes32"
        }
      ],
      "name": "getRoleAdmin",
      "outputs": [
        {
          "internalType": "bytes32",
          "name": "",
          "type": "bytes32"
        }
      ],
      "stateMutability": "view",
      "type": "function"
    },
    {
      "inputs": [
        {
          "internalType": "bytes32",
          "name": "role",
          "type": "bytes32"
        },
        {
          "internalType": "address",
          "name": "account",
          "type": "address"
        }
      ],
      "name": "grantRole",
      "outputs": [],
      "stateMutability": "nonpayable",
      "type": "function"
    },
    {
      "inputs": [
        {
          "internalType": "bytes32",
          "name": "role",
          "type": "bytes32"
        },
        {
          "internalType": "address",
          "name": "account",
          "type": "address"
        }
      ],
      "name": "hasRole",
      "outputs": [
        {
          "internalType": "bool",
          "name": "",
          "type": "bool"
        }
      ],
      "stateMutability": "view",
      "type": "function"
    },
    {
      "inputs": [],
      "name": "identityRegistry",
      "outputs": [
        {
          "internalType": "address",
          "name": "",
          "type": "address"
        }
      ],
      "stateMutability": "view",
      "type": "function"
    },
    {
      "inputs": [],
      "name": "intgToken",
      "outputs": [
        {
          "internalType": "contract IntegrityToken",
          "name": "",
          "type": "address"
        }
      ],
      "stateMutability": "view",
      "type": "function"
    },
    {
      "inputs": [],
      "name": "linkToken",
      "outputs": [
        {
          "internalType": "contract IERC20",
          "name": "",
          "type": "address"
        }
      ],
      "stateMutability": "view",
      "type": "function"
    },
    {
      "inputs": [
        {
          "internalType": "bytes32",
          "name": "",
          "type": "bytes32"
        }
      ],
      "name": "pendingValidations",
      "outputs": [
        {
          "internalType": "bool",
          "name": "",
          "type": "bool"
        }
      ],
      "stateMutability": "view",
      "type": "function"
    },
    {
      "inputs": [
        {
          "internalType": "bytes32",
          "name": "_requestHash",
          "type": "bytes32"
        },
        {
          "internalType": "uint8",
          "name": "_status",
          "type": "uint8"
        },
        {
          "internalType": "string",
          "name": "_uri",
          "type": "string"
        }
      ],
      "name": "recordValidation",
      "outputs": [],
      "stateMutability": "nonpayable",
      "type": "function"
    },
    {
      "inputs": [
        {
          "internalType": "bytes32",
          "name": "role",
          "type": "bytes32"
        },
        {
          "internalType": "address",
          "name": "callerConfirmation",
          "type": "address"
        }
      ],
      "name": "renounceRole",
      "outputs": [],
      "stateMutability": "nonpayable",
      "type": "function"
    },
    {
      "inputs": [
        {
          "internalType": "address",
          "name": "_validator",
          "type": "address"
        },
        {
          "internalType": "address",
          "name": "_agent",
          "type": "address"
        },
        {
          "internalType": "string",
          "name": "_uri",
          "type": "string"
        }
      ],
      "name": "requestValidation",
      "outputs": [
        {
          "internalType": "bytes32",
          "name": "",
          "type": "bytes32"
        }
      ],
      "stateMutability": "nonpayable",
      "type": "function"
    },
    {
      "inputs": [
        {
          "internalType": "bytes32",
          "name": "role",
          "type": "bytes32"
        },
        {
          "internalType": "address",
          "name": "account",
          "type": "address"
        }
      ],
      "name": "revokeRole",
      "outputs": [],
      "stateMutability": "nonpayable",
      "type": "function"
    },
    {
      "inputs": [
        {
          "internalType": "address",
          "name": "_router",
          "type": "address"
        },
        {
          "internalType": "address",
          "name": "_linkToken",
          "type": "address"
        }
      ],
      "name": "setCCIPConfig",
      "outputs": [],
      "stateMutability": "nonpayable",
      "type": "function"
    },
    {
      "inputs": [
        {
          "internalType": "address",
          "name": "_registry",
          "type": "address"
        }
      ],
      "name": "setIdentityRegistry",
      "outputs": [],
      "stateMutability": "nonpayable",
      "type": "function"
    },
    {
      "inputs": [
        {
          "internalType": "address",
          "name": "_anchor",
          "type": "address"
        },
        {
          "internalType": "address",
          "name": "_verifier",
          "type": "address"
        }
      ],
      "name": "setZKConfigs",
      "outputs": [],
      "stateMutability": "nonpayable",
      "type": "function"
    },
    {
      "inputs": [
        {
          "internalType": "uint256",
          "name": "_amount",
          "type": "uint256"
        }
      ],
      "name": "stake",
      "outputs": [],
      "stateMutability": "nonpayable",
      "type": "function"
    },
    {
      "inputs": [],
      "name": "stateAnchor",
      "outputs": [
        {
          "internalType": "address",
          "name": "",
          "type": "address"
        }
      ],
      "stateMutability": "view",
      "type": "function"
    },
    {
      "inputs": [
        {
          "internalType": "bytes4",
          "name": "interfaceId",
          "type": "bytes4"
        }
      ],
      "name": "supportsInterface",
      "outputs": [
        {
          "internalType": "bool",
          "name": "",
          "type": "bool"
        }
      ],
      "stateMutability": "view",
      "type": "function"
    },
    {
      "inputs": [
        {
          "internalType": "uint256",
          "name": "_amount",
          "type": "uint256"
        }
      ],
      "name": "unstake",
      "outputs": [],
      "stateMutability": "nonpayable",
      "type": "function"
    },
    {
      "inputs": [
        {
          "internalType": "address",
          "name": "_agent",
          "type": "address"
        },
        {
          "internalType": "uint256",
          "name": "_ais",
          "type": "uint256"
        },
        {
          "internalType": "uint256",
          "name": "_tier",
          "type": "uint256"
        }
      ],
      "name": "updateAIS",
      "outputs": [],
      "stateMutability": "nonpayable",
      "type": "function"
    },
    {
      "inputs": [
        {
          "internalType": "uint256",
          "name": "_targetTier",
          "type": "uint256"
        },
        {
          "internalType": "uint256",
          "name": "_amount",
          "type": "uint256"
        }
      ],
      "name": "upgradeTier",
      "outputs": [],
      "stateMutability": "nonpayable",
      "type": "function"
    },
    {
      "inputs": [
        {
          "internalType": "address",
          "name": "_agent",
          "type": "address"
        },
        {
          "internalType": "bool",
          "name": "_status",
          "type": "bool"
        },
        {
          "internalType": "uint256",
          "name": "_tier",
          "type": "uint256"
        }
      ],
      "name": "verifyAgent",
      "outputs": [],
      "stateMutability": "nonpayable",
      "type": "function"
    },
    {
      "inputs": [
        {
          "internalType": "bytes",
          "name": "_proof",
          "type": "bytes"
        },
        {
          "internalType": "bytes32[]",
          "name": "_publicInputs",
          "type": "bytes32[]"
        }
      ],
      "name": "verifyReputationZK",
      "outputs": [],
      "stateMutability": "nonpayable",
      "type": "function"
    },
    {
      "inputs": [],
      "name": "zkVereifier",
      "outputs": [
        {
          "internalType": "address",
          "name": "",
          "type": "address"
        }
      ],
      "stateMutability": "view",
      "type": "function"
    }
  ],
  "bytecode": "0x608060405234801562000010575f80fd5b5060405162001ec338038062001ec383398101604081905262000033916200015c565b60018055600280546001600160a01b0319166001600160a01b0384161790556200005e5f8262000094565b506200008b7f21702c8af46127c7fa207f89d0b0a8441bb32959a0ac7df790e9ab1a25c989268262000094565b50505062000192565b5f828152602081815260408083206001600160a01b038516845290915281205460ff1662000137575f838152602081815260408083206001600160a01b03861684529091529020805460ff19166001179055620000ee3390565b6001600160a01b0316826001600160a01b0316847f2f8788117e7eff1d82e926ec794901d17c78024a50270940304540a733656f0d60405160405180910390a45060016200013a565b505f5b92915050565b80516001600160a01b038116811462000157575f80fd5b919050565b5f80604083850312156200016e575f80fd5b620001798362000140565b9150620001896020840162000140565b90509250929050565b611d2380620001a05f395ff3fe608060405234801561000f575f80fd5b50600436106101c6575f3560e01c806360d77722116100fe578063be304b591161009e578063d547741f1161006e578063d547741f146103f5578063dab220d714610408578063fb3551ff1461041b578063fd66091e14610454575f80fd5b8063be304b5914610399578063c49baebe146103ac578063c4a2890c146103c0578063cbf3f861146103e2575f80fd5b806391d14854116100d957806391d1485414610359578063a217fddf1461036c578063a694fc3a14610373578063b939696814610386575f80fd5b806360d77722146103205780636875e24d146103335780637c514e0f14610346575f80fd5b806336568abe1161016957806357970e931161014457806357970e93146102d45780635b60c32b146102e75780635be2f89a146102fa5780635fc264a91461030d575f80fd5b806336568abe1461029b57806343283985146102ae5780635732e4ab146102c1575f80fd5b8063134e18f4116101a4578063134e18f414610232578063248a9ca3146102455780632e17de78146102755780632f2ff15d14610288575f80fd5b806301ffc9a7146101ca5780630de22984146101f2578063109b46de1461021d575b5f80fd5b6101dd6101d8366004611740565b6104cb565b60405190151581526020015b60405180910390f35b600654610205906001600160a01b031681565b6040516001600160a01b0390911681526020016101e9565b61023061022b36600461178f565b610501565b005b600354610205906001600160a01b031681565b6102676102533660046117cb565b5f9081526020819052604090206001015490565b6040519081526020016101e9565b6102306102833660046117cb565b61058a565b6102306102963660046117e2565b610757565b6102306102a93660046117e2565b610781565b6102306102bc366004611851565b6107b9565b6102306102cf3660046118ae565b610895565b600754610205906001600160a01b031681565b6102306102f53660046118d6565b6108ce565b610267610308366004611906565b610a54565b61023061031b366004611930565b610af2565b61023061032e3660046119c2565b610cc6565b600454610205906001600160a01b031681565b600554610205906001600160a01b031681565b6101dd6103673660046117e2565b610e80565b6102675f81565b6102306103813660046117cb565b610ea8565b600254610205906001600160a01b031681565b6102676103a73660046119e2565b610ff9565b6102675f80516020611cce83398151915281565b6101dd6103ce3660046117cb565b60096020525f908152604090205460ff1681565b6102306103f0366004611a30565b6114b7565b6102306104033660046117e2565b6114e4565b6102306104163660046118ae565b611508565b61042e610429366004611a30565b611541565b6040805194855260208501939093529015159183019190915260608201526080016101e9565b61049c610462366004611a30565b60086020525f9081526040902080546001820154600283015460038401546004850154600590950154939492939192909160ff9091169086565b6040805196875260208701959095529385019290925260608401521515608083015260a082015260c0016101e9565b5f6001600160e01b03198216637965db0b60e01b14806104fb57506301ffc9a760e01b6001600160e01b03198316145b92915050565b5f80516020611cce833981519152610518816115d7565b6001600160a01b0384165f8181526008602090815260409182902060048101805460ff1916881515908117909155600590910186905582519081529081018590527f32ba28c3fa8c3f5101d8ca9fc54eb5fbf2d633cde38c4f944ab033bd50eb5067910160405180910390a250505050565b6105926115e1565b5f81116105ba5760405162461bcd60e51b81526004016105b190611a49565b60405180910390fd5b335f9081526008602052604090206002015481111561061b5760405162461bcd60e51b815260206004820152601c60248201527f496e73756666696369656e74207374616b65642062616c616e63652e0000000060448201526064016105b1565b335f908152600860205260408120600201805483929061063c908490611a9e565b9091555050335f818152600860205260409081902042600390910155600254905163a9059cbb60e01b81526004810192909252602482018390526001600160a01b03169063a9059cbb906044016020604051808303815f875af11580156106a5573d5f803e3d5ffd5b505050506040513d601f19601f820116820180604052508101906106c99190611ab1565b6107155760405162461bcd60e51b815260206004820152601860248201527f556e7374616b65207472616e73666572206661696c65642e000000000000000060448201526064016105b1565b60405181815233907f0f5bb82176feb1b5e747e28471aa92156a04d9f3ab9f45f28e2d704232b93f75906020015b60405180910390a261075460018055565b50565b5f82815260208190526040902060010154610771816115d7565b61077b838361160b565b50505050565b6001600160a01b03811633146107aa5760405163334bd91960e11b815260040160405180910390fd5b6107b4828261169a565b505050565b5f80516020611cce8339815191526107d0816115d7565b5f8581526009602052604090205460ff1661083b5760405162461bcd60e51b815260206004820152602560248201527f496e76616c6964206f7220616c72656164792070726f636573736564207265716044820152643ab2b9ba1760d91b60648201526084016105b1565b5f8581526009602052604090819020805460ff191690555185907f6fd4615200853f01293547a62fc48b13b1a3bd9cfaf86a2167566c0207960c6d9061088690879087908790611af4565b60405180910390a25050505050565b5f61089f816115d7565b50600480546001600160a01b039384166001600160a01b03199182161790915560058054929093169116179055565b5f80516020611cce8339815191526108e5816115d7565b61012c83101580156108f957506103e88311155b6109455760405162461bcd60e51b815260206004820152601760248201527f414953206f7574206f662076616c69642072616e67652e00000000000000000060448201526064016105b1565b60018210158015610957575060038211155b6109935760405162461bcd60e51b815260206004820152600d60248201526c24b73b30b634b2103a34b2b91760991b60448201526064016105b1565b6001600160a01b0384165f8181526008602090815260409182902080548782556005820187905542600390920191909155825181815291820187905292917ff5afcf76b12e84d756b8b627c82e12b8499714c186ece340df0c64e95f81e06f910160405180910390a26001600160a01b0385165f8181526008602090815260409182902060040154825160ff909116151581529081018690527f32ba28c3fa8c3f5101d8ca9fc54eb5fbf2d633cde38c4f944ab033bd50eb50679101610886565b5f808585858542604051602001610a6f959493929190611b19565b60408051601f1981840301815282825280516020918201205f8181526009909252919020805460ff19166001179055915081906001600160a01b0380881691908916907f0932cb249f93b339e245b331ef47519f828609553f0b828ad598facf4bfaebc590610ae19089908990611b56565b60405180910390a495945050505050565b610afa6115e1565b5f82826002818110610b0e57610b0e611b71565b6020029190910135915050336001600160a01b03821614610b875760405162461bcd60e51b815260206004820152602d60248201527f4f6e6c7920746865206167656e742063616e207375626d69742074686569722060448201526c37bbb7102d2596b83937b7b31760991b60648201526084016105b1565b6005546001600160a01b0316610bdf5760405162461bcd60e51b815260206004820152601b60248201527f5a4b205665726966696572206e6f7420636f6e666967757265642e000000000060448201526064016105b1565b6004546001600160a01b0316610c375760405162461bcd60e51b815260206004820152601c60248201527f537461746520416e63686f72206e6f7420636f6e666967757265642e0000000060448201526064016105b1565b5f83836003818110610c4b57610c4b611b71565b9050602002013590505f84845f818110610c6757610c67611b71565b6001600160a01b0386165f818152600860209081526040808320426003909101555193029490940135945085939092507f0ef181b011f1054e9ae7d771953a8613fbd8d9253d4b26738228c77c63d7231191a350505061077b60018055565b335f908152600860205260409020600501548211610d355760405162461bcd60e51b815260206004820152602660248201527f43616e6e6f7420646f776e6772616465206f7220737461792061742073616d65604482015265103a34b2b91760d11b60648201526084016105b1565b6003821115610d7d5760405162461bcd60e51b815260206004820152601460248201527324b73b30b634b2103a30b933b2ba103a34b2b91760611b60448201526064016105b1565b6002546040516323b872dd60e01b8152336004820152306024820152604481018390526001600160a01b03909116906323b872dd906064016020604051808303815f875af1158015610dd1573d5f803e3d5ffd5b505050506040513d601f19601f82011682018060405250810190610df59190611ab1565b610e415760405162461bcd60e51b815260206004820152601760248201527f55706772616465207061796d656e74206661696c65642e00000000000000000060448201526064016105b1565b604080518381526020810183905233917f95ef978c451897345e237358ea5ba3332e0e39b6e07a8c7e9f4d17734bac739d910160405180910390a25050565b5f918252602082815260408084206001600160a01b0393909316845291905290205460ff1690565b610eb06115e1565b5f8111610ecf5760405162461bcd60e51b81526004016105b190611a49565b6002546040516323b872dd60e01b8152336004820152306024820152604481018390526001600160a01b03909116906323b872dd906064016020604051808303815f875af1158015610f23573d5f803e3d5ffd5b505050506040513d601f19601f82011682018060405250810190610f479190611ab1565b610f8c5760405162461bcd60e51b815260206004820152601660248201527529ba30b5b2903a3930b739b332b9103330b4b632b21760511b60448201526064016105b1565b335f9081526008602052604081206002018054839290610fad908490611b85565b9091555050335f818152600860205260409081902042600390910155517f9e71bc8eea02a63969f509818f2dafb9254532904319f9dbda79b67bd34a5f3d906107439084815260200190565b5f6110026115e1565b6006546001600160a01b031661105a5760405162461bcd60e51b815260206004820152601b60248201527f4343495020526f75746572206e6f7420636f6e666967757265642e000000000060448201526064016105b1565b6001600160a01b0384165f90815260086020908152604091829020825160c081018452815480825260018301549382019390935260028201549381019390935260038101546060840152600481015460ff16151560808401526005015460a08301526111145760405162461bcd60e51b8152602060048201526024808201527f4167656e7420686173206e6f204149532073636f726520746f2062726f61646360448201526330b9ba1760e11b60648201526084016105b1565b805160a0820151604080516001600160a01b03891660208201529081019290925260608201525f9060800160408051808303601f1901815260a083019091526001600160a01b03861660c083015291505f908060e0810160408051808303601f19018152918152908252602080830186905281515f80825291810183529290910191906111c2565b604080518082019091525f808252602082015281526020019060019003908161119c5790505b5081526007546001600160a01b031660208083019190915260408051808301825262030d4090819052815160248082019290925282518082039092018252604401825291820180516001600160e01b03166397a657c960e01b179052909101526006546040516320487ded60e01b81529192505f916001600160a01b03909116906320487ded90611259908a908690600401611bdb565b602060405180830381865afa158015611274573d5f803e3d5ffd5b505050506040513d601f19601f820116820180604052508101906112989190611cb6565b6007546040516370a0823160e01b815230600482015291925082916001600160a01b03909116906370a0823190602401602060405180830381865afa1580156112e3573d5f803e3d5ffd5b505050506040513d601f19601f820116820180604052508101906113079190611cb6565b10156113695760405162461bcd60e51b815260206004820152602b60248201527f4e6f7420656e6f756768204c494e4b2062616c616e636520746f20636f76657260448201526a1021a1a4a8103332b2b99760a91b60648201526084016105b1565b60075460065460405163095ea7b360e01b81526001600160a01b0391821660048201526024810184905291169063095ea7b3906044016020604051808303815f875af11580156113bb573d5f803e3d5ffd5b505050506040513d601f19601f820116820180604052508101906113df9190611ab1565b506006546040516396f4e9f960e01b81526001600160a01b03909116906396f4e9f990611412908a908690600401611bdb565b6020604051808303815f875af115801561142e573d5f803e3d5ffd5b505050506040513d601f19601f820116820180604052508101906114529190611cb6565b6040805167ffffffffffffffff8a168152602081018390529196506001600160a01b038a16917fb630bff0c29407c7f55604dd2129c2c5eed7fb7a924d45ac6c805dd5c08926dd910160405180910390a2505050506114b060018055565b9392505050565b5f6114c1816115d7565b50600380546001600160a01b0319166001600160a01b0392909216919091179055565b5f828152602081905260409020600101546114fe816115d7565b61077b838361169a565b5f611512816115d7565b50600680546001600160a01b039384166001600160a01b03199182161790915560078054929093169116179055565b6001600160a01b0381165f908152600860209081526040808320815160c081018352815480825260018301549482019490945260028201549281019290925260038101546060830152600481015460ff16151560808301526005015460a0820152829182918291156115b45780516115b8565b61012c5b816040015182608001518360a001519450945094509450509193509193565b6107548133611703565b60026001540361160457604051633ee5aeb560e01b815260040160405180910390fd5b6002600155565b5f6116168383610e80565b611693575f838152602081815260408083206001600160a01b03861684529091529020805460ff1916600117905561164b3390565b6001600160a01b0316826001600160a01b0316847f2f8788117e7eff1d82e926ec794901d17c78024a50270940304540a733656f0d60405160405180910390a45060016104fb565b505f6104fb565b5f6116a58383610e80565b15611693575f838152602081815260408083206001600160a01b0386168085529252808320805460ff1916905551339286917ff6391f5c32d9c69d2a47ea670b442974b53935d1edc7fd64eb21e047a839171b9190a45060016104fb565b61170d8282610e80565b61173c5760405163e2517d3f60e01b81526001600160a01b0382166004820152602481018390526044016105b1565b5050565b5f60208284031215611750575f80fd5b81356001600160e01b0319811681146114b0575f80fd5b80356001600160a01b038116811461177d575f80fd5b919050565b8015158114610754575f80fd5b5f805f606084860312156117a1575f80fd5b6117aa84611767565b925060208401356117ba81611782565b929592945050506040919091013590565b5f602082840312156117db575f80fd5b5035919050565b5f80604083850312156117f3575f80fd5b8235915061180360208401611767565b90509250929050565b5f8083601f84011261181c575f80fd5b50813567ffffffffffffffff811115611833575f80fd5b60208301915083602082850101111561184a575f80fd5b9250929050565b5f805f8060608587031215611864575f80fd5b84359350602085013560ff8116811461187b575f80fd5b9250604085013567ffffffffffffffff811115611896575f80fd5b6118a28782880161180c565b95989497509550505050565b5f80604083850312156118bf575f80fd5b6118c883611767565b915061180360208401611767565b5f805f606084860312156118e8575f80fd5b6118f184611767565b95602085013595506040909401359392505050565b5f805f8060608587031215611919575f80fd5b61192285611767565b935061187b60208601611767565b5f805f8060408587031215611943575f80fd5b843567ffffffffffffffff8082111561195a575f80fd5b6119668883890161180c565b9096509450602087013591508082111561197e575f80fd5b818701915087601f830112611991575f80fd5b81358181111561199f575f80fd5b8860208260051b85010111156119b3575f80fd5b95989497505060200194505050565b5f80604083850312156119d3575f80fd5b50508035926020909101359150565b5f805f606084860312156119f4575f80fd5b6119fd84611767565b9250602084013567ffffffffffffffff81168114611a19575f80fd5b9150611a2760408501611767565b90509250925092565b5f60208284031215611a40575f80fd5b6114b082611767565b60208082526021908201527f416d6f756e74206d7573742062652067726561746572207468616e207a65726f6040820152601760f91b606082015260800190565b634e487b7160e01b5f52601160045260245ffd5b818103818111156104fb576104fb611a8a565b5f60208284031215611ac1575f80fd5b81516114b081611782565b81835281816020850137505f828201602090810191909152601f909101601f19169091010190565b60ff84168152604060208201525f611b10604083018486611acc565b95945050505050565b5f6bffffffffffffffffffffffff19808860601b168352808760601b16601484015250838560288401375060289201918201526048019392505050565b602081525f611b69602083018486611acc565b949350505050565b634e487b7160e01b5f52603260045260245ffd5b808201808211156104fb576104fb611a8a565b5f81518084525f5b81811015611bbc57602081850181015186830182015201611ba0565b505f602082860101526020601f19601f83011685010191505092915050565b5f604067ffffffffffffffff851683526020604081850152845160a06040860152611c0960e0860182611b98565b905081860151603f1980878403016060880152611c268383611b98565b6040890151888203830160808a0152805180835290860194505f9350908501905b80841015611c7957845180516001600160a01b0316835286015186830152938501936001939093019290860190611c47565b5060608901516001600160a01b031660a08901526080890151888203830160c08a01529550611ca88187611b98565b9a9950505050505050505050565b5f60208284031215611cc6575f80fd5b505191905056fe21702c8af46127c7fa207f89d0b0a8441bb32959a0ac7df790e9ab1a25c98926a264697066735822122012961b7aef347c997bb9cfc22e2832b5a2cd273bbdbc589888a7a4c95a13381b64736f6c63430008180033",
  "linkReferences": {},
  "deployedLinkReferences": {}
}