{
  "_format": "hh-sol-artifact-1",
  "contractName": "Slasher",
  "sourceName": "contracts/Slasher.sol",
  "abi": [
    {
      "inputs": [
        {
          "internalType": "address",
          "name": "_protocol",
          "type": "address"
        },
        {
          "internalType": "address",
          "name": "_registry",
          "type": "address"
        }
      ],
      "stateMutability": "nonpayable",
      "type": "constructor"
    },
    {
      "inputs": [
        {
          "internalType": "address",
          "name": "owner",
          "type": "address"
        }
      ],
      "name": "OwnableInvalidOwner",
      "type": "error"
    },
    {
      "inputs": [
        {
          "internalType": "address",
          "name": "account",
          "type": "address"
        }
      ],
      "name": "OwnableUnauthorizedAccount",
      "type": "error"
    },
    {
      "inputs": [],
      "name": "ReentrancyGuardReentrantCall",
      "type": "error"
    },
    {
      "anonymous": false,
      "inputs": [
        {
          "indexed": true,
          "internalType": "bytes32",
          "name": "dealId",
          "type": "bytes32"
        },
        {
          "indexed": true,
          "internalType": "address",
          "name": "initiator",
          "type": "address"
        }
      ],
      "name": "DisputeRaised",
      "type": "event"
    },
    {
      "anonymous": false,
      "inputs": [
        {
          "indexed": true,
          "internalType": "bytes32",
          "name": "dealId",
          "type": "bytes32"
        },
        {
          "indexed": false,
          "internalType": "bool",
          "name": "justified",
          "type": "bool"
        }
      ],
      "name": "DisputeResolved",
      "type": "event"
    },
    {
      "anonymous": false,
      "inputs": [
        {
          "indexed": true,
          "internalType": "address",
          "name": "previousOwner",
          "type": "address"
        },
        {
          "indexed": true,
          "internalType": "address",
          "name": "newOwner",
          "type": "address"
        }
      ],
      "name": "OwnershipTransferred",
      "type": "event"
    },
    {
      "anonymous": false,
      "inputs": [
        {
          "indexed": true,
          "internalType": "bytes32",
          "name": "dealId",
          "type": "bytes32"
        },
        {
          "indexed": true,
          "internalType": "address",
          "name": "performer",
          "type": "address"
        },
        {
          "indexed": false,
          "internalType": "uint256",
          "name": "amount",
          "type": "uint256"
        }
      ],
      "name": "SlashExecuted",
      "type": "event"
    },
    {
      "inputs": [],
      "name": "challengeWindow",
      "outputs": [
        {
          "internalType": "uint256",
          "name": "",
          "type": "uint256"
        }
      ],
      "stateMutability": "view",
      "type": "function"
    },
    {
      "inputs": [
        {
          "internalType": "bytes32",
          "name": "",
          "type": "bytes32"
        }
      ],
      "name": "disputes",
      "outputs": [
        {
          "internalType": "bytes32",
          "name": "dealId",
          "type": "bytes32"
        },
        {
          "internalType": "address",
          "name": "initiator",
          "type": "address"
        },
        {
          "internalType": "address",
          "name": "performer",
          "type": "address"
        },
        {
          "internalType": "uint256",
          "name": "stakeAtRisk",
          "type": "uint256"
        },
        {
          "internalType": "uint256",
          "name": "createdAt",
          "type": "uint256"
        },
        {
          "internalType": "bool",
          "name": "resolved",
          "type": "bool"
        },
        {
          "internalType": "bool",
          "name": "justified",
          "type": "bool"
        }
      ],
      "stateMutability": "view",
      "type": "function"
    },
    {
      "inputs": [],
      "name": "owner",
      "outputs": [
        {
          "internalType": "address",
          "name": "",
          "type": "address"
        }
      ],
      "stateMutability": "view",
      "type": "function"
    },
    {
      "inputs": [],
      "name": "protocol",
      "outputs": [
        {
          "internalType": "contract IntegrityProtocol",
          "name": "",
          "type": "address"
        }
      ],
      "stateMutability": "view",
      "type": "function"
    },
    {
      "inputs": [
        {
          "internalType": "bytes32",
          "name": "_dealId",
          "type": "bytes32"
        }
      ],
      "name": "raiseDispute",
      "outputs": [],
      "stateMutability": "nonpayable",
      "type": "function"
    },
    {
      "inputs": [],
      "name": "registry",
      "outputs": [
        {
          "internalType": "contract ReputationRegistry",
          "name": "",
          "type": "address"
        }
      ],
      "stateMutability": "view",
      "type": "function"
    },
    {
      "inputs": [],
      "name": "renounceOwnership",
      "outputs": [],
      "stateMutability": "nonpayable",
      "type": "function"
    },
    {
      "inputs": [
        {
          "internalType": "bytes32",
          "name": "_dealId",
          "type": "bytes32"
        },
        {
          "internalType": "bool",
          "name": "_justified",
          "type": "bool"
        }
      ],
      "name": "resolveDispute",
      "outputs": [],
      "stateMutability": "nonpayable",
      "type": "function"
    },
    {
      "inputs": [
        {
          "internalType": "uint256",
          "name": "_window",
          "type": "uint256"
        }
      ],
      "name": "setChallengeWindow",
      "outputs": [],
      "stateMutability": "nonpayable",
      "type": "function"
    },
    {
      "inputs": [
        {
          "internalType": "address",
          "name": "newOwner",
          "type": "address"
        }
      ],
      "name": "transferOwnership",
      "outputs": [],
      "stateMutability": "nonpayable",
      "type": "function"
    }
  ],
  "bytecode": "0x608060405262015180600455348015610016575f80fd5b506040516109ea3803806109ea83398101604081905261003591610103565b338061005a57604051631e4fbdf760e01b81525f600482015260240160405180910390fd5b61006381610099565b5060018055600280546001600160a01b039384166001600160a01b03199182161790915560038054929093169116179055610134565b5f80546001600160a01b038381166001600160a01b0319831681178455604051919092169283917f8be0079c531659141344cd1fd0a4f28419497f9722a3daafe3b4186f6b6457e09190a35050565b80516001600160a01b03811681146100fe575f80fd5b919050565b5f8060408385031215610114575f80fd5b61011d836100e8565b915061012b602084016100e8565b90509250929050565b6108a9806101415f395ff3fe608060405234801561000f575f80fd5b506004361061009b575f3560e01c8063861a141211610063578063861a14121461019f5780638ce74426146101b65780638da5cb5b146101c9578063e14f5b7d146101d9578063f2fde38b146101ec575f80fd5b806301c1aa0d1461009f57806311be1997146100b457806343a0e3e614610159578063715018a61461016c5780637b10399914610174575b5f80fd5b6100b26100ad366004610737565b6101ff565b005b61010f6100c2366004610737565b600560208190525f918252604090912080546001820154600283015460038401546004850154949095015492946001600160a01b0392831694919092169260ff8082169161010090041687565b604080519788526001600160a01b039687166020890152949095169386019390935260608501919091526080840152151560a0830152151560c082015260e0015b60405180910390f35b6100b261016736600461075b565b61020c565b6100b2610362565b600354610187906001600160a01b031681565b6040516001600160a01b039091168152602001610150565b6101a860045481565b604051908152602001610150565b600254610187906001600160a01b031681565b5f546001600160a01b0316610187565b6100b26101e7366004610737565b610375565b6100b26101fa36600461079d565b61067f565b6102076106bc565b600455565b6102146106bc565b5f82815260056020526040902080546102695760405162461bcd60e51b81526020600482015260126024820152712234b9b83aba32903737ba103337bab7321760711b60448201526064015b60405180910390fd5b600581015460ff16156102b25760405162461bcd60e51b815260206004820152601160248201527020b63932b0b23c903932b9b7b63b32b21760791b6044820152606401610260565b600581018054831580156101000261ffff199092169190911760011790915561032157600281015460038201546040519081526001600160a01b039091169084907f3283d96d18219c171ae87edff3571820203be9a1e834b1e3dd12e18986598d399060200160405180910390a35b827f6309d9f2499864a4f9d4ddb22f2b493afde8c215a1cd2e178647596cffe2efa483604051610355911515815260200190565b60405180910390a2505050565b61036a6106bc565b6103735f6106e8565b565b6002546040516340e6c39560e11b8152600481018390525f9182918291829182916001600160a01b0316906381cd872a9060240160c060405180830381865afa1580156103c4573d5f803e3d5ffd5b505050506040513d601f19601f820116820180604052508101906103e891906107bf565b9550955050945094509450806104325760405162461bcd60e51b815260206004820152600f60248201526e2232b0b6103737ba103337bab7321760891b6044820152606401610260565b816104965760405162461bcd60e51b815260206004820152602e60248201527f4465616c206d75737420626520636f6d706c6574656420746f2064697370757460448201526d32903832b93337b936b0b731b29760911b6064820152608401610260565b336001600160a01b038616146104ee5760405162461bcd60e51b815260206004820152601b60248201527f4f6e6c7920696e69746961746f722063616e20646973707574652e00000000006044820152606401610260565b600480545f8881526005602052604090209091015461050d919061082f565b4211158061052957505f86815260056020526040902060040154155b6105665760405162461bcd60e51b815260206004820152600e60248201526d2bb4b73237bb9031b637b9b2b21760911b6044820152606401610260565b6040518060e00160405280878152602001866001600160a01b03168152602001856001600160a01b031681526020016002856105a29190610854565b8152426020808301919091525f604080840182905260609384018290528a8252600580845281832086518155938601516001850180546001600160a01b039283166001600160a01b03199182161790915587840151600287018054918416919092161790559486015160038501556080860151600485015560a08601519301805460c09096015115156101000261ff00199415159490941661ffff199096169590951792909217909355519087169188917fa71ec46ab116e07f9703467558af33f82718419b32e2acafa86c65587891e3cc9190a3505050505050565b6106876106bc565b6001600160a01b0381166106b057604051631e4fbdf760e01b81525f6004820152602401610260565b6106b9816106e8565b50565b5f546001600160a01b031633146103735760405163118cdaa760e01b8152336004820152602401610260565b5f80546001600160a01b038381166001600160a01b0319831681178455604051919092169283917f8be0079c531659141344cd1fd0a4f28419497f9722a3daafe3b4186f6b6457e09190a35050565b5f60208284031215610747575f80fd5b5035919050565b80151581146106b9575f80fd5b5f806040838503121561076c575f80fd5b82359150602083013561077e8161074e565b809150509250929050565b6001600160a01b03811681146106b9575f80fd5b5f602082840312156107ad575f80fd5b81356107b881610789565b9392505050565b5f805f805f8060c087890312156107d4575f80fd5b86516107df81610789565b60208801519096506107f081610789565b80955050604087015193506060870151925060808701516108108161074e565b60a08801519092506108218161074e565b809150509295509295509295565b8082018082111561084e57634e487b7160e01b5f52601160045260245ffd5b92915050565b5f8261086e57634e487b7160e01b5f52601260045260245ffd5b50049056fea26469706673582212209cce66a76176a70cfd6773512adec3d4f29a79126d882fc24b0a245c7670333164736f6c63430008180033",
  "linkReferences": {},
  "deployedLinkReferences": {}
}